:100000000EC01DC01CC01BC01AC01AC018C017C02B
:1000100016C015C014C013C012C011C010C01124E6
:100020001FBECFE5D2E0DEBFCDBF20E0A0E6B0E04E
:1000300001C01D92A037B207E1F74CD09FC0E0CFBE
:100040001F920F920FB60F9211242F933F938F930D
:100050009F93AF93BF938091650090916600A091AC
:100060006700B09168003091640026E0230F2D37BF
:1000700068F129E8230F0396A11DB11D20936400A8
:100080008093650090936600A0936700B09368002A
:100090008091600090916100A0916200B091630036
:1000A0000196A11DB11D8093600090936100A09303
:1000B0006200B0936300BF91AF919F918F913F9188
:1000C0002F910F900FBE0F901F9018950296A11DB3
:1000D000B11DD4CF83E08ABD82E083BF789489B715
:1000E000826089BF80E48CBD8FEF8DBD84EC80BFC2
:1000F00083E886B9BA9A21E030E08FB7F89440914E
:1001000065005091660060916700709168008FBF34
:1001100080916C0090916D00A0916E00B0916F0085
:100120007A018B01E81AF90A0A0B1B0BD801C701E7
:10013000893E9340A105B105B8F080916900E09136
:100140006A00F0916B00EF2B99F430936B002093D1
:100150006A0084608093690040936C0050936D0046
:1001600060936E0070936F008091690088BBC5CF6B
:1001700010926B0010926A008B7FECCFF894FFCF47
:00000001FF
